:020000040800F2
:1000000020050020D5000008C517000801160008CB
:1000100000000000000000000000000000000000E0
:10002000000000000000000000000000C9170008E8
:100030000000000000000000C7170008CB170008F0
:100040000501000800000000050100080501000886
:100050000501000805010008050100080501000868
:100060000000000005010008050100080501000866
:100070000501000805010008050100080000000056
:100080000501000800000000000000000501000854
:100090000000000005010008050100080501000836
:1000A0000000000005010008000000000501000834
:1000B0000501000800000000000000000501000824
:1000C0000348854600F0ACF800480047131D0008BF
:1000D000200500200C4880F308880C480168090EB0
:1000E0000B4A914205D10B480B4901600B480C4962
:1000F00001600C4880470C480047FEE7FEE7FEE73A
:10010000FEE7FEE7FEE700002005002004000000F7
:100110001F00000018100240010000000000014014
:10012000000000004B180008C100000830B50B4665
:10013000014600202022012409E00D46D5409D42C1
:1001400005D31D469540491B254695404019154647
:10015000521E002DF1DC30BDF0B51FB40646002064
:1001600082B005464024019100901BE0019922468F
:100170000F46304600F020F8049A059B801A9941FA
:1001800010D310461946224600F039F8361A8F412E
:100190000197224601200021009F00F030F8381816
:1001A0004D4100902046641E0028DFDC019B009832
:1001B0002946324607B0F0BD10B5202A04DB0846B8
:1001C000203AD040002110BD0B46D340D04020241F
:1001D000A21A91400843194610BDD2B201E0027044
:1001E000401C491EFBD270470022F6E710B51346AB
:1001F0000A4604461946FFF7F0FF204610BD10B529
:10020000202A04DB0146203A9140002010BD914095
:1002100020239C1A0346E3401943904010BD000080
:10022000064C0125064E05E0E36807CC2B430C3C49
:1002300098471034B442F7D3FFF746FF781D000803
:10024000981D000870470000F8B504460D460026CA
:100250000020009001210907E06A884215D0E06A79
:10026000012812D0E06A02280FD0E06A03280CD0DF
:10027000E06A042809D0E06A052806D0E06A06286A
:1002800003D0E06A072800D000BF00BF3420005D23
:10029000012801D10220F8BD01213420015500BF01
:1002A0002068806804210840800800287BD14449E8
:1002B000686888425BD02068806A2A780121914072
:1002C00008432168886201210907E06A884229D031
:1002D000E06A012826D0E06A022823D0E06A0328D9
:1002E00020D0E06A04281DD0E06A05281AD0E06A10
:1002F000062817D0E06A072814D0A8682168496941
:100300004907490F88420DD020684069C008C000E5
:100310002168486120684069297A4907490F0843E4
:10032000216848612868102802D0286811283FD128
:10033000244880682968102901D1C90401E00121FD
:10034000890508431F4988602868102830D11E4954
:100350001E480068FFF7EAFE0A214843009002E0C9
:100360000098401E009000980028F9D120E02068F5
:10037000806A2A7801219140884321688862286830
:10038000102802D02868112812D10E4880682968E8
:10039000102902D1C90402E005E001218905884342
:1003A0000849886004E0A06B20210843A06301266F
:1003B00000BF00213420015500BF30466BE700002C
:1003C000011000000027014040420F000C000020F7
:1003D00070B5044600260025002C01D1012070BD17
:1003E000A06B002806D1E06300213420015520468F
:1003F00000F0D0F8A06B1021084000287ED1002E1C
:10040000FCD1206880680421084080080028F5D1CC
:10041000A06B8901884302210843A063206880689B
:100420008007800F01280DD120680068C007C00F29
:10043000002805D12068C06889030840884201D19E
:10044000012000E0002000280FD12068C06818219A
:100450008843A16808432168C8602068006980005B
:10046000800861680843216808612068C0684749BE
:1004700008402168C860207E8003617EC90308436C
:10048000A17E49030843A16A012902D00121090381
:1004900000E000210843E16808432169022901D1F5
:1004A000042100E0002108432421095D490008439C
:1004B0000543E07E01280ED1A07E002803D1012053
:1004C0000004054307E0A06B20210843A063E06B14
:1004D00001210843E063FF21C231E069884203D073
:1004E000216AE069084305432068C0682843216801
:1004F000C86001210907E06A884200E03EE014D0AC
:10050000E06A012811D0E06A02280ED0E06A0328D0
:100510000BD0E06A042808D0E06A052805D0E06A1C
:10052000062802D0E06A07280DD120684069C0087B
:10053000C0002168486120684069A18D4907490FC2
:100540000843216848612068C06811490840A842F2
:1005500008D10020E063A06B0221884301210843F9
:10056000A06310E0A06B0221884310210843A06320
:10057000E06B01210843E063012604E0A06B102139
:100580000843A0630126304629E700001902FEFF58
:10059000E7FF3F8310B586B00446142101A8FFF79A
:1005A00023FE16492068884226D100BF144880697E
:1005B0004915084312498861084680694915084071
:1005C000009000BF00BF00BF0D48406949020843CA
:1005D0000B494861084640690121890408400090A0
:1005E00000BF00BF02200190032002900020039072
:1005F00001A9044800F01EF806B010BD0024014017
:10060000001002400004004870B5044600F016F9DE
:1006100006462546681C002802D0054800782D189B
:1006200000BF00F00BF9801BA842FAD370BD000098
:100630000800002078B503460022DDE00126964040
:100640000C683440002C7DD04D68022D02D04D68DE
:10065000122D15D1D508AE001D462035A8595507D5
:10066000EE0E0F25B5400646AE4330465607F60E51
:100670000D69B5402843D508AD001E46203670519F
:10068000186856000325B5400646AE4330460D793E
:10069000AD07AD0F5600B540284318604D68012DD9
:1006A00008D04D68022D05D04D68112D02D04D683F
:1006B000122D18D1986856000325B5400646AE4362
:1006C00030465600CD68B5402843986058680125EB
:1006D00095400646AE43304610264D6835402D09FC
:1006E000954028435860D86856000325B540064613
:1006F000AE43304656008D68B5402843D860012689
:1007000036074D683540B54275D100BF3D4DAD69E6
:10071000012635433B4EB5613546AD69ED07ED0F1A
:10072000009500BF00BF384D9608B600A859950740
:100730002E0F0F25B5400646AE4330460925ED067F
:10074000AB4200E057E001D100250FE02F4DAB4256
:1007500001D101250AE02E4DAB4201D1022505E071
:100760002C4DAB4201D1032500E005259607360F3D
:10077000B5402843244D9608B600A851264D286858
:100780000546A5432846012636044D683540B54246
:1007900002D10546254328461F4D28606868054656
:1007A000A5432846012676044D683540B54202D15E
:1007B000054625432846184D6860A8680546A543A8
:1007C0002846012636054D683540B54202D105461A
:1007D00025432846104DA860E8680546A5432846ED
:1007E000012676054D683540B54202D105462543C0
:1007F0002846094DE860521C0D68D540002D00D0F8
:100800001CE778BD001002400800014000040048C9
:1008100000080048000C004800040140024613692B
:100820000B40002B01D0012000E000207047002A7F
:1008300001D0816100E081627047000001480068DA
:10084000704700000000002002464120805C202804
:100850002FD100BF4020805C012801D102207047C9
:1008600001234020835400BF242341208354106877
:100870000068400840001368186010680068012391
:100880001B039843136818601068006808431368D6
:10089000186010680068012318431368186020234B
:1008A0004120835400BF00234020835400BF002018
:1008B000D5E70220D3E710B502460B464120805C05
:1008C00020282ED100BF4020805C012801D10220C9
:1008D00010BD01244020845400BF242441208454AE
:1008E00010680068400840001468206010680168C3
:1008F0000F2424020846A043014618020143106851
:1009000001601068006801242043146820602024DE
:100910004120845400BF00244020845400BF0020A4
:10092000D6E70220D4E7000010B50446002C01D120
:10093000012010BD4120005D002805D1002140208C
:100940000155204600F05AF8242141200155206825
:10095000006840084000216808600F2109066068AF
:10096000884321680861206880680121C9038843A1
:1009700021688860E068012806D10121C903A068C8
:1009800008432168886005E021218902A0680843A6
:1009900021688860E068022802D1800221684860EE
:1009A0002068406814490843216848602068C0688E
:1009B0000121C90388432168C8606169206908432F
:1009C000A169090208432168C860216AE0690843F7
:1009D00021680860206800680121084321680860D8
:1009E0000020606420214120015500202063002167
:1009F0004220015500209CE70080000210B586B01F
:100A00000446142101A8FFF7EFFB1A492068884229
:100A10002DD100BF184840690121890508431649B6
:100A2000486108464069012189050840009000BFDF
:100A300000BF0320019012200290012003900320A8
:100A400004900120059001A90C48FFF7F3FD00BFB9
:100A50000948C0690121490508430749C86108469A
:100A6000C069012149050840009000BF00BF06B0E1
:100A700010BD000000540040001002400014004867
:100A80000348006803490978401801490860704725
:100A9000000000200800002010B506480068102162
:100AA000084304490860002000F006F800F02EF822
:100AB000002010BD0020024070B5044610480178A7
:100AC0007D20C000FFF732FB064631460D48006826
:100AD000FFF72CFB054600F0F7FC002801D00120B1
:100AE00070BD042C07D200222146501E00F02EF8C3
:100AF0000548046001E00120F2E70020F0E7000073
:100B0000080000200C0000200400002008B500BFF1
:100B10000D488069012108430B49886108468069B6
:100B2000C007C00F009000BF00BF00BF0846C069EB
:100B3000090408430449C8610846C069090408401B
:100B4000009000BF00BF08BD0010024070B5044611
:100B50000D4616462946204601F090F870BD00006B
:100B6000F8B5044600260025012109042068084044
:100B700088427AD100275248C069090308400028FA
:100B80000DD100BF4E48C06908434D49C8610846B1
:100B9000C06909040840009000BF00BF0127494810
:100BA0000068FF2101310840002816D1454800683F
:100BB000084344490860FFF741FE064606E0FFF798
:100BC0003DFE801B642801D90320F8BD3D48006824
:100BD000FF21013108400028F1D03948006A032183
:100BE000090208400546002D2DD060680840A84243
:100BF00029D03348006A884305463148006A0121FC
:100C0000090408432E4908620846006A01210904C4
:100C100088432B49086208460562E807C00F002890
:100C200011D0FFF70BFE064607E0FFF707FE801B1B
:100C30002549884201D90320C7E72148006A0221DB
:100C400008400028F1D01E48006A032109028843A9
:100C5000616808431A490862012F05D10846C06936
:100C6000090488431649C86100BF2078C007C00F37
:100C7000002807D01248006B80088000A168084354
:100C80000F490863202120680840202807D10C481C
:100C9000006B10218843E16808430949086301217A
:100CA000490420680840884207D10548006B80212C
:100CB00088432169084302490863002085E7000052
:100CC00000100240007000408813000070B5044618
:100CD0000D46002C01D1012070BD52480068C007AC
:100CE000C00FA8420ED24F48006840084000284379
:100CF0004C49086008460068C007C00FA84201D0F0
:100D00000120E9E7022120680840022814D10421CB
:100D100020680840042807D1434840680721090299
:100D200088434018404948603F484068F021884364
:100D3000A16808433C4948602078C007C00F0028DC
:100D40003BD06068012808D1374800680121490478
:100D50000840002815D10120BEE76068022808D1AC
:100D600031480068012149060840002809D10120C6
:100D7000B2E72D48006802210840002801D1012077
:100D8000AAE729484068800880006168084326492E
:100D90004860FFF753FD064607E0FFF74FFD801B55
:100DA0002249884201D9032096E71F4840680C2158
:100DB0000840616889008842EFD11A480068C0077E
:100DC000C00FA8420ED917480068400840002843C9
:100DD0001449086008460068C007C00FA84201D047
:100DE000012079E7042120680840042808D10E4832
:100DF0004068072109028843E16808430A494860BE
:100E000000F032F808494968F02211400909084AFF
:100E1000515CC840074908600020FFF74DFE0020E4
:100E20005AE7000000200240001002408813000032
:100E3000601D00080C000020014800687047000099
:100E40000C00002000B5FFF7F7FF054949680722AD
:100E500012021140090A034A515CC84000BD00005B
:100E600000100240701D0008F0B589B029A00146AD
:100E70000EC9C06805AC0EC408902AA001460EC970
:100E8000C06801AC0EC40490002500240027002691
:100E900000200090274845680C202840002832D0C8
:100EA000042802D008282DD102E0234800902DE02C
:100EB0000F2080042840800C05A90E5C1D48C06AE4
:100EC0000007000F01A90C5C0320C003284001218A
:100ED000090488420AD12246002317481946FFF721
:100EE0003BF9314600F0B2FE074609E022460023F6
:100EF00011481946FFF730F9314600F0A7FE0746C2
:100F0000009703E000BF0C48009000BF00BF0098AE
:100F100009B0F0BD02030405060708090A0B0C0D11
:100F20000E0F10100102030405060708090A0B0C36
:100F30000D0E0F100010024000127A00FEB504469C
:100F4000002C01D10120FEBD2078C007C00F002871
:100F500072D0FC4840680C21084004280CD0F948A5
:100F600040680840082813D1F64840684903084003
:100F70000121090488420BD1F2480068012149048B
:100F8000084000286BD06068002868D10120DAE7AB
:100F900000BF6068012807D1EA4800680121090400
:100FA0000843E849086031E0606800280ED1E54850
:100FB0000068012109048843E24908600846006886
:100FC000012189048843DF4908601FE06068052823
:100FD0000ED1DC480068012189040843D949086022
:100FE00008460068012109040843D64908600DE05D
:100FF000D4480068012109048843D24908600846A2
:101000000068012189048843CE49086000BF6068F8
:10101000002812D0FFF712FC054606E0FFF70EFC91
:10102000401B642801D903208DE7C64800680121D0
:10103000490408400028F1D011E0FFF7FFFB054606
:1010400006E0FFF7FBFB401B642801D903207AE789
:10105000BC4800680121490408400028F1D1022160
:1010600020680840022862D1B64840680C21084038
:1010700000280CD0B3484068084008281CD1B1486B
:101080004068490308400121C903884214D1AD4892
:10109000006802210840002804D0E068012801D03F
:1010A000012050E7A7480068F82188432169C9005A
:1010B0000843A44908603AE0E068002820D0A1482D
:1010C0000068012108439F490860FFF7B7FB054608
:1010D00006E0FFF7B3FB401B022801D9032032E7EB
:1010E00098480068022108400028F2D0954800681E
:1010F000F82188432169C90008439249086016E035
:1011000090480068400840008E490860FFF796FB51
:10111000054606E0FFF792FB401B022801D9032099
:1011200011E788480068022108400028F2D1082110
:1011300020680840082831D1E069002817D081488C
:10114000406A012108437F494862FFF777FB054663
:1011500006E0FFF773FB401B022801D90320F2E6EB
:101160007848406A022108400028F2D016E075480D
:10117000406A4008400073494862FFF75FFB05463C
:1011800006E0FFF75BFB401B022801D90320DAE6EB
:101190006C48406A022108400028F2D104212068EE
:1011A0000840042872D1002001906648C069890671
:1011B000084000280ED100BF6248C0690843614959
:1011C000C8610846C06909040840009000BF00BF1C
:1011D000012001905C480068FF210131084000288F
:1011E00016D159480068084357490860FFF726FBA5
:1011F000054606E0FFF722FB401B642801D90320C7
:10120000A1E651480068FF21013108400028F1D0D3
:1012100000BFA068012806D14A48006A012108439E
:10122000484908622AE0A06800280BD14548006AB6
:101230004108490043480162006A0421884341494A
:1012400008621BE0A06805280CD13E48006A042112
:1012500008433C4908620846006A012108433949AD
:1012600008620BE03748006A4008400035490862D0
:101270000846006A042188433249086200BFA0681A
:10128000002813D0FFF7DAFA054608E02BE0FFF755
:10129000D5FA401B2D49884201D9032053E629483D
:1012A000006A022108400028F1D011E0FFF7C6FAD9
:1012B000054607E0FFF7C2FA411B2448814201D9E5
:1012C000032040E61F48006A022108400028F1D1AF
:1012D0000198012806D11B48C069012109078843EC
:1012E0001849C86100BF10212068084010285FD14C
:1012F000606901282CD11348406B0421084311492F
:1013000048630846406B012108430E494863FFF7D4
:1013100095FA054606E0FFF791FA401B022801D92D
:10132000032010E60748406B022108400028F2D055
:101330000448406BF8218843A169C900084301496A
:10134000486335E000100240007000408813000040
:101350006069401D00280FD15A48406B0421884322
:10136000584948630846406BF8218843A169C90081
:101370000843544948631BE05248406B042108432A
:10138000504948630846406B400840004863FFF7F7
:1013900055FA054606E0FFF751FA401B022801D92D
:1013A0000320D0E54748406B022108400028F2D1D5
:1013B000206A00284FD0434840680C210840082884
:1013C00064D0206A022847D13E48006801210906FE
:1013D00088433C490860FFF731FA054606E0FFF70D
:1013E0002DFA401B022801D90320ACE535480068DE
:1013F0000121490608400028F1D100BF3148C06AE8
:1014000000090001E16A08432E49C862616AA06AC6
:1014100008432C4949687B22D20391430843294958
:10142000486000BF084600680121090608432549B5
:101430000860FFF703FA054606E0FFF7FFF9401BD7
:10144000022801D903207EE51E48006801214906D3
:1014500008400028F1D033E01A480068012109064D
:10146000884318490860FFF7E9F9054606E0FFF7E9
:10147000E5F9401B022801D9032064E51148006802
:101480000121490608400028F1D119E0206A01280D
:1014900000D158E50B484668C76A0320C0033040B6
:1014A000616A88420AD13907090FE06A814205D191
:1014B0000F2080043040A16A884201D0012042E51B
:1014C000002040E50010024070B504462546681E25
:1014D0000949884201D901200CE0681E074948618A
:1014E0000321081F00F0CAFB00200449886107207F
:1014F0000861002070BD0000FFFFFF0000E000E079
:1015000010B50446002C01D1012010BDA0690028AF
:1015100000D000E000BF606F002805D100217020DE
:101520000155204600F02CF82420606720680068F0
:101530004008400021680860204600F037FA012882
:1015400000D1E2E7606A002802D0204600F07EF970
:10155000206840680121C9028843216848602068EA
:10156000806808218843216888602068006801211C
:10157000084321680860204600F0E0F9C5E7000054
:1015800010B586B00446142101A8FEF72DFE1A49B5
:10159000206888422ED100BF184880690121890344
:1015A000084316498861084680690121890308407B
:1015B000009000BF00BF00BF10484069C900084349
:1015C0000E494861084640690121490408400090DD
:1015D00000BF00BF032040020190022002900020C3
:1015E0000390032004900120059001A90920C00662
:1015F000FFF720F806B010BD00380140001002408F
:1016000000BFFEE70EB5002000900190029019483F
:101610001949086000204860002117488160C160B6
:101620000121016104214161002101764176817629
:10163000C176FF21C231C1610021016224300170F5
:10164000012124388162FEF7C3FE002801D0FEF795
:10165000F9FD092000900120000301900004029090
:1016600069460548FEF7F0FD002801D0FEF7EAFDC7
:101670000EBD0000002401401000002000B587B01E
:10168000142102A8FEF7B0FD00BF254840690121E2
:1016900089050843224948610846406901218905B6
:1016A0000840019000BF00BF00BF1D4840694911BC
:1016B00008431B4948610846406901214904084024
:1016C000019000BF00BF00BF1548406949000843B2
:1016D0001349486108464069012189040840019086
:1016E00000BF00BF00220F210920C006FFF79FF8AE
:1016F0000F2002900120039000200490059002A981
:101700000920C006FEF796FFF0200290002003900B
:10171000049002A90920C006FEF78CFF07B000BDA7
:101720000010024010B51348134908601348486080
:101730000021114881600121C160002101614161E6
:101740008161C1610162FFF7EFF8002801D0FEF767
:1017500079FD00210848FFF777F8002801D0FEF74F
:1017600071FD00210448FFF7A6F8002801D0FEF71C
:1017700069FD10BD00540040500000200E090020FB
:1017800010B50E480E4908604B2040024860002109
:101790000B488160C16001610C21416100218161C0
:1017A000C16101620020064948620846FFF7A8FEB1
:1017B000002801D0FEF746FD10BD000000380140B2
:1017C0009C00002070477047704710B5FFF758F92C
:1017D00010BD00B595B0302109A8FEF705FD002029
:1017E000059006900790089014216846FEF7FCFCCF
:1017F0001220099001200C900E9010200D900F9057
:101800000020119009A8FFF799FB002801D0FEF7EE
:1018100019FD0720059000200690079008900021F0
:1018200005A8FFF753FA002801D0FEF70BFD212091
:1018300000900020029003906846FFF791F900287D
:1018400001D0FEF7FFFC15B000BD7047818CC907C1
:10185000C90F002908D00168496801225204914348
:10186000826A1143026851600222416A11400229D2
:1018700007D101684968D2039143C26A11430268E3
:1018800051600422416A1140042907D10168496866
:1018900012049143026B1143026851600822416AAD
:1018A0001140082907D10168496812039143426B2E
:1018B0001143026851601022416A1140102907D17A
:1018C0000168896812029143826B1143026891603A
:1018D0002022416A1140202907D10168896812023B
:1018E0009143C26B1143026891604022416A1140EA
:1018F000402915D10168496892039143026C114354
:101900000268516001221205016C914208D1016800
:101910004968032252059143426C114302685160A9
:101920008022416A1140802907D101684968120369
:101930009143826C114302685160704738B5044688
:101940000020E067FEF77AFF05462068006808215E
:10195000084008280BD114482B4600228904009027
:10196000204600F015F9002801D0032038BD20687A
:1019700000680421084004280BD10B482B460022A4
:1019800009050090204600F003F9002801D003204B
:10199000ECE720206067A06700BF002170200155A0
:1019A00000BF0020E2E70000FFFFFF01FEB5044694
:1019B0000027002000902169A0680843616908435E
:1019C000E16908430290206800686A49084002996A
:1019D00008432168086020684068032109038843A0
:1019E000E168084321684860A0690290206A029972
:1019F00008430290206880680B21090288430299FD
:101A000008432168886000BF5B492068884217D17D
:101A10005A48006B8007800F002806D0012808D0A4
:101A2000022808D0032808D101E0002507E002259C
:101A300005E0042503E0082501E0102500BF06E0CD
:101A40004F492068884201D1002500E0102500BFE1
:101A50000121C903E06988424AD1002D06D0022D38
:101A600010D0042D16D0082D29D11FE0FFF7EAF978
:101A70000646720063685B08D0186168FEF756FB83
:101A800087B21FE061684A083E4BD018FEF74EFB54
:101A900087B217E0FFF7E8F90646720063685B0853
:101AA000D0186168FEF742FB87B20BE061684A0814
:101AB00001231B04D018FEF739FB87B202E0012096
:101AC000009000BF00BF102F0FD32F4887420CD8C3
:101AD0002D480F38384001903807400F01990843CE
:101AE000019001982168C8603EE0012000903BE031
:101AF000002D06D0022D0ED0042D14D0082D25D196
:101B00001BE0FFF79FF9064661684A089019FEF747
:101B10000DFB87B21DE061684A081C4BD018FEF728
:101B200005FB87B215E0FFF79FF9064661684A0892
:101B30009019FEF7FBFA87B20BE061684A080123AF
:101B4000DB03D018FEF7F2FA87B202E00120009022
:101B500000BF00BF102F05D30B48874202D8206872
:101B6000C76001E0012000900020206660660098B8
:101B7000FEBD0000F369FFEF003801400010024095
:101B8000004400400024F400FFFF000000127A002F
:101B9000FFB581B004460D4617460A9E4AE0701C08
:101BA000002847D0FEF74AFE0499401AB04201D8F7
:101BB000002E17D120680068FF21A13188432168D9
:101BC0000860206880684008400021688860202004
:101BD0006067A06700BF00217020015500BF03208F
:101BE00005B0F0BD2068006804210840002821D01D
:101BF0002068C06949020840C00A00281AD0084677
:101C00002168086220680068FF21A13188432168AB
:101C100008602068806840084000216888602020B3
:101C20006067A067E06700BF00217020015500BF1A
:101C30000320D5E72068C0692840A84201D10120CF
:101C400000E00020B842AAD00020C9E7F8B582B26F
:101C50008BB2040C0D0C10465843002126465E43FF
:101C6000370C36048019794116466E43370C36041A
:101C70008019794126466E438919F8BD10B50028B0
:101C800019DB1A4A03231B02D21883089B00D2587F
:101C90008307DC0EFF23A3409A438B071B0E8407A8
:101CA000E40EA3401A43114B032424021B19840899
:101CB000A4001A5118E00E4A03071B0F083B9B08AB
:101CC0009B00D2588307DC0EFF23A3409A438B0767
:101CD0001B0E8407E40EA3401A43054B0407240F90
:101CE000083CA408A4001A5110BD000000E100E067
:101CF0001CED00E002E008C8121F08C1002AFAD15A
:101D000070477047002001E001C1121F002AFBD17B
:101D10007047FEF7C1FEFFF75CFDFFF7AFFCFFF772
:101D200071FCFFF7FFFCFFF72BFD18E08021092075
:101D3000C006FEF773FD002811D10420FEF764FCF5
:101D4000012208210920C006FEF771FD0120FEF7DF
:101D50005BFC002208210920C006FEF768FDE5E7CC
:101D6000000000000000000001020304060708094B
:101D70000000000001020304981D0008000000207C
:101D800010000000F41C0008A81D0008100000202E
:101D900010050000041D0008000000000400000001
:081DA0000100000000127A00AE
:04000005080000C12E
:00000001FF
